:020000040800F2
:1000000068060020350200083D0200083F02000893
:1000100041020008430200084502000800000000F9
:10002000000000000000000000000000470200087F
:1000300049020008000000004B0200084D020008C1
:100040004F0200084F0200084F0200084F0200084C
:100050004F0200084F0200084F0200084F0200083C
:100060004F0200084F0200084F0200084F0200082C
:100070004F0200084F0200084F0200084F0200081C
:100080004F0200084F0200084F0200080000000065
:100090000000000000000000000000004F02000807
:1000A0004F0200084F0200084F0200084F020008EC
:1000B000C10400084F0200084F0200084F02000868
:1000C0004F0200084F0200084F0200084F020008CC
:1000D0004F0200084F0200084F0200080000000015
:1000E0004F0200084F0200084F0200080000000005
:1000F0000000000000000000000000004F020008A7
:10010000000000004F0200084F0200084F020008E4
:1001100000000000000000000000000000000000DF
:100120004F0200084F0200084F0200084F0200086B
:100130004F02000800000000000000000000000066
:100140000000000000000000000000004F02000856
:100150004F0200084F0200084F0200084F0200083B
:100160004F0200084F0200080000000000000000DD
:10017000000000000000000000000000000000007F
:10018000000000004F020008000000000000000016
:100190004F02000800F002F800F03CF80AA090E8D6
:1001A000000C82448344AAF10107DA4501D100F032
:1001B00031F8AFF2090EBAE80F0013F0010F18BFC3
:1001C000FB1A43F00103184778040000980400006C
:1001D000103A24BF78C878C1FAD8520724BF30C873
:1001E00030C144BF04680C60704700000023002445
:1001F00000250026103A28BF78C1FBD8520728BF37
:1002000030C148BF0B6070471FB500F007FA1FBD33
:1002100010B510BD00F031F81146FFF7F5FF00F002
:10022000A9F900F04FF803B4FFF7F2FF03BC00F0A8
:1002300057F800000948804709480047FEE7FEE7F5
:10024000FEE7FEE7FEE7FEE7FEE7FEE7FEE7FEE786
:1002500004480549054A064B704700005D04000844
:100260009501000868000020680600206802002050
:1002700068020020704770477047754600F02CF800
:10028000AE4605006946534620F00700854618B083
:1002900020B5FFF7DDFFBDE820404FF000064FF02E
:1002A00000074FF000084FF0000B21F00701AC46AB
:1002B000ACE8C009ACE8C009ACE8C009ACE8C009CA
:1002C0008D46704710B50446AFF300802046BDE868
:1002D0001040FFF7A8BF000000487047040000204E
:1002E00001491820ABBEFEE726000200704700005F
:1002F0002748006840F001002549086000BF2448F5
:10030000006800F002000028F9D0002020490831E0
:10031000086000BF1E480830006800F00C0000288C
:10032000F8D14FF480701B4908600846006840F01F
:10033000050008601648006820F0807014490860C5
:100340001548091D0860081F006840F08070091FEB
:10035000086000E000BF0E48006800F00070002850
:10036000F8D00B480830006820F003000849083135
:1003700008600846006840F00200086000BF0448BA
:100380000830006800F00C000828F8D17047000021
:1003900000380240003C02401060030870B50020A5
:1003A0000022022300240221274D2D6805F00C00B5
:1003B00020B1042806D0082834D107E0234D244E6C
:1003C000356033E0234D224E35602FE01E4D2D1F4A
:1003D0002D68C5F380541C4D2D1F2D6805F03F017D
:1003E00054B11C4DB5FBF1F5174E361F3668C6F3F8
:1003F000881605FB06F209E0144DB5FBF1F5124E27
:10040000361F3668C6F3881605FB06F20E4D2D1F03
:100410002D68C5F301456D1C6B00B2FBF3F50C4E66
:10042000356003E0094D0A4E356000BF00BF064D40
:100430002D68C5F30315084E705D054D2D68C54048
:10044000034E356070BD0000083802400024F400FF
:100450000000002040787D0126060008144800684E
:1004600040F47000124908601248006840F0010032
:100470001049086000200F49083108600D480068E5
:100480000D4908400B4908600C48091D0860081F09
:10049000006820F48020091F0860002005490C3105
:1004A00008604FF000600249803908607047000022
:1004B00088ED00E000380240FFFFF6FE1030002417
:1004C00000B506A000F060F84FF08040006920F011
:1004D00001004FF08041086100BD000048656C6C70
:1004E0006F20576F726C6421000000001E48006886
:1004F00040F400301C49086040F2A1101B4908601C
:10050000081D006840F40050091D08600846006896
:1005100040F00800086014481038006840F00100FE
:100520001149103908601248006820F03000104965
:1005300008600846006840F0200008600846006A2D
:1005400020F4706008620846006A40F48070086217
:100550000846006A40F4007008620846006A40F4E9
:100560008060086270470000403802400844004044
:1005700000000240FFF7BCFEFFF710FF00F026F876
:10058000FFF7B4FF00BFFEE700B50246002304E01A
:10059000D05C00F00DF8581CC3B2D05C0028F7D135
:1005A0000D2000F005F80A2000F002F800BD000060
:1005B00000BF0549096801F040010029F9D002494E
:1005C000091D0860704700000044004012480068A0
:1005D00040F00100104908604BF67F300906886240
:1005E0004FF47A70C862C006C06840F00100C8606D
:1005F0000846006840F0010008601C20002809DB64
:1006000000F01F02012191404209920002F1E02214
:10061000C2F8001100BF7047403802404FF04070F0
:10062000E1EE100A70470000000000000000010227
:10063000030406070809000000000102030400008B
:10064000600600080000002004000000D00100083F
:10065000640600080400002064060000EC010008A5
:040660000024F4007E
:040000050800019559
:00000001FF
