:020000040800F2
:1000000060060020190200082102000823020008EF
:10001000250200082702000829020008000000004D
:100020000000000000000000000000002B0200089B
:100030002D020008000000002F0200083102000815
:1000400033020008330200083302000833020008BC
:1000500033020008330200083302000833020008AC
:10006000330200083302000833020008330200089C
:10007000330200083302000833020008330200088C
:1000800033020008330200083302000800000000B9
:100090000000000000000000000000003302000823
:1000A000330200083302000833020008330200085C
:1000B000330200083302000833020008330200084C
:1000C000330200083302000833020008330200083C
:1000D0003302000833020008330200080000000069
:1000E000D5020008330200083302000800000000B7
:1000F00000000000000000000000000033020008C3
:100100000000000033020008330200083302000838
:1001100000000000000000000000000000000000DF
:1001200033020008330200083302000833020008DB
:100130003302000800000000000000000000000082
:100140000000000000000000000000003302000872
:1001500033020008330200083302000833020008AB
:100160003302000833020008000000000000000015
:10017000000000000000000000000000000000007F
:100180000000000033020008000000000000000032
:100190003302000800F002F800F02EF80AA090E800
:1001A000000C82448344AAF10107DA4501D100F032
:1001B00023F8AFF2090EBAE80F0013F0010F18BFD1
:1001C000FB1A43F001031847880200009802000060
:1001D0000023002400250026103A28BF78C1FBD850
:1001E000520728BF30C148BF0B6070471FB500F0F1
:1001F00029F91FBD10B510BD00F031F81146FFF709
:10020000F5FF00F0ABF800F04FF803B4FFF7F2FF92
:1002100003BC00F057F80000094880470948004730
:10022000FEE7FEE7FEE7FEE7FEE7FEE7FEE7FEE7A6
:10023000FEE7FEE704480549054A064B7047000003
:10024000F902000895010008600000206006002007
:1002500060020020600200207047704770477546BA
:1002600000F02CF8AE4605006946534620F0070022
:10027000854618B020B5FFF7DDFFBDE820404FF000
:1002800000064FF000074FF000084FF0000B21F080
:100290000701AC46ACE8C009ACE8C009ACE8C0094D
:1002A000ACE8C0098D46704710B50446AFF3008036
:1002B0002046BDE81040FFF7A8BF00000048704787
:1002C0000000002001491820ABBEFEE72600020016
:1002D000704700000648006840F400500449086078
:1002E0000448406980F020000249486170470000DE
:1002F000143C0140000002401448006840F47000C3
:10030000124908601248006840F001001049086076
:1003100000200F49083108600D4800680D49084069
:100320000B4908600C48091D0860081F006820F48C
:100330008020091F0860002005490C3108604FF03B
:1003400000600249803908607047000088ED00E0D5
:1003500000380240FFFFF6FE1030002434480068E9
:1003600040F00100324908600846006840F004008F
:1003700008603048006820F440602E490860084654
:10038000006840F4806008600846406820F0200063
:1003900048600846C06820F44060C860264800688D
:1003A00020F040602449086023480C30006820F0A9
:1003B000406021490C3108600846006840F0006048
:1003C00008602820002809DB00F01F02012191406D
:1003D0004209920002F1E022C2F8001100BF144865
:1003E0001430006840F4804011491431086013480B
:1003F000406920F0F00111484161406940F020015E
:100400000E4841610E48006840F400500C490860F5
:100410000B480C30006840F4005009490C3108606A
:10042000081F006840F40050091F086000BFFEE785
:10043000303802400000024000080240003801400D
:10044000003C01404FF04070E1EE100A70470000A0
:10045000600400080000002060060000D0010008D1
:040000050800019559
:00000001FF
